{
  "contractName": "SolnSquareVerifier",
  "abi": [
    {
      "constant": true,
      "inputs": [
        {
          "name": "interfaceId",
          "type": "bytes4"
        }
      ],
      "name": "supportsInterface",
      "outputs": [
        {
          "name": "",
          "type": "bool"
        }
      ],
      "payable": false,
      "stateMutability": "view",
      "type": "function"
    },
    {
      "constant": true,
      "inputs": [],
      "name": "name",
      "outputs": [
        {
          "name": "",
          "type": "string"
        }
      ],
      "payable": false,
      "stateMutability": "view",
      "type": "function"
    },
    {
      "constant": true,
      "inputs": [
        {
          "name": "tokenId",
          "type": "uint256"
        }
      ],
      "name": "getApproved",
      "outputs": [
        {
          "name": "",
          "type": "address"
        }
      ],
      "payable": false,
      "stateMutability": "view",
      "type": "function"
    },
    {
      "constant": false,
      "inputs": [
        {
          "name": "to",
          "type": "address"
        },
        {
          "name": "tokenId",
          "type": "uint256"
        }
      ],
      "name": "approve",
      "outputs": [],
      "payable": false,
      "stateMutability": "nonpayable",
      "type": "function"
    },
    {
      "constant": false,
      "inputs": [
        {
          "name": "isPaused",
          "type": "bool"
        }
      ],
      "name": "setPaused",
      "outputs": [],
      "payable": false,
      "stateMutability": "nonpayable",
      "type": "function"
    },
    {
      "constant": true,
      "inputs": [],
      "name": "totalSupply",
      "outputs": [
        {
          "name": "",
          "type": "uint256"
        }
      ],
      "payable": false,
      "stateMutability": "view",
      "type": "function"
    },
    {
      "constant": false,
      "inputs": [
        {
          "name": "from",
          "type": "address"
        },
        {
          "name": "to",
          "type": "address"
        },
        {
          "name": "tokenId",
          "type": "uint256"
        }
      ],
      "name": "transferFrom",
      "outputs": [],
      "payable": false,
      "stateMutability": "nonpayable",
      "type": "function"
    },
    {
      "constant": false,
      "inputs": [
        {
          "name": "_myid",
          "type": "bytes32"
        },
        {
          "name": "_result",
          "type": "string"
        }
      ],
      "name": "__callback",
      "outputs": [],
      "payable": false,
      "stateMutability": "nonpayable",
      "type": "function"
    },
    {
      "constant": true,
      "inputs": [
        {
          "name": "owner",
          "type": "address"
        },
        {
          "name": "index",
          "type": "uint256"
        }
      ],
      "name": "tokenOfOwnerByIndex",
      "outputs": [
        {
          "name": "",
          "type": "uint256"
        }
      ],
      "payable": false,
      "stateMutability": "view",
      "type": "function"
    },
    {
      "constant": false,
      "inputs": [
        {
          "name": "_myid",
          "type": "bytes32"
        },
        {
          "name": "_result",
          "type": "string"
        },
        {
          "name": "_proof",
          "type": "bytes"
        }
      ],
      "name": "__callback",
      "outputs": [],
      "payable": false,
      "stateMutability": "nonpayable",
      "type": "function"
    },
    {
      "constant": false,
      "inputs": [
        {
          "name": "from",
          "type": "address"
        },
        {
          "name": "to",
          "type": "address"
        },
        {
          "name": "tokenId",
          "type": "uint256"
        }
      ],
      "name": "safeTransferFrom",
      "outputs": [],
      "payable": false,
      "stateMutability": "nonpayable",
      "type": "function"
    },
    {
      "constant": true,
      "inputs": [
        {
          "name": "index",
          "type": "uint256"
        }
      ],
      "name": "tokenByIndex",
      "outputs": [
        {
          "name": "",
          "type": "uint256"
        }
      ],
      "payable": false,
      "stateMutability": "view",
      "type": "function"
    },
    {
      "constant": true,
      "inputs": [
        {
          "name": "tokenId",
          "type": "uint256"
        }
      ],
      "name": "ownerOf",
      "outputs": [
        {
          "name": "",
          "type": "address"
        }
      ],
      "payable": false,
      "stateMutability": "view",
      "type": "function"
    },
    {
      "constant": true,
      "inputs": [
        {
          "name": "owner",
          "type": "address"
        }
      ],
      "name": "balanceOf",
      "outputs": [
        {
          "name": "",
          "type": "uint256"
        }
      ],
      "payable": false,
      "stateMutability": "view",
      "type": "function"
    },
    {
      "constant": true,
      "inputs": [],
      "name": "symbol",
      "outputs": [
        {
          "name": "",
          "type": "string"
        }
      ],
      "payable": false,
      "stateMutability": "view",
      "type": "function"
    },
    {
      "constant": false,
      "inputs": [
        {
          "name": "to",
          "type": "address"
        },
        {
          "name": "approved",
          "type": "bool"
        }
      ],
      "name": "setApprovalForAll",
      "outputs": [],
      "payable": false,
      "stateMutability": "nonpayable",
      "type": "function"
    },
    {
      "constant": false,
      "inputs": [
        {
          "name": "from",
          "type": "address"
        },
        {
          "name": "to",
          "type": "address"
        },
        {
          "name": "tokenId",
          "type": "uint256"
        },
        {
          "name": "_data",
          "type": "bytes"
        }
      ],
      "name": "safeTransferFrom",
      "outputs": [],
      "payable": false,
      "stateMutability": "nonpayable",
      "type": "function"
    },
    {
      "constant": true,
      "inputs": [
        {
          "name": "tokenId",
          "type": "uint256"
        }
      ],
      "name": "tokenURI",
      "outputs": [
        {
          "name": "",
          "type": "string"
        }
      ],
      "payable": false,
      "stateMutability": "view",
      "type": "function"
    },
    {
      "constant": true,
      "inputs": [],
      "name": "contractOwner",
      "outputs": [
        {
          "name": "",
          "type": "address"
        }
      ],
      "payable": false,
      "stateMutability": "view",
      "type": "function"
    },
    {
      "constant": true,
      "inputs": [],
      "name": "baseTokenURI",
      "outputs": [
        {
          "name": "",
          "type": "string"
        }
      ],
      "payable": false,
      "stateMutability": "view",
      "type": "function"
    },
    {
      "constant": true,
      "inputs": [
        {
          "name": "owner",
          "type": "address"
        },
        {
          "name": "operator",
          "type": "address"
        }
      ],
      "name": "isApprovedForAll",
      "outputs": [
        {
          "name": "",
          "type": "bool"
        }
      ],
      "payable": false,
      "stateMutability": "view",
      "type": "function"
    },
    {
      "constant": false,
      "inputs": [
        {
          "name": "newOwner",
          "type": "address"
        }
      ],
      "name": "transferOwnership",
      "outputs": [],
      "payable": false,
      "stateMutability": "nonpayable",
      "type": "function"
    },
    {
      "inputs": [
        {
          "name": "verifierAddress",
          "type": "address"
        }
      ],
      "payable": false,
      "stateMutability": "nonpayable",
      "type": "constructor"
    },
    {
      "anonymous": false,
      "inputs": [
        {
          "indexed": true,
          "name": "to",
          "type": "address"
        },
        {
          "indexed": true,
          "name": "TokenId",
          "type": "uint256"
        }
      ],
      "name": "SolutionAdded",
      "type": "event"
    },
    {
      "anonymous": false,
      "inputs": [
        {
          "indexed": true,
          "name": "from",
          "type": "address"
        },
        {
          "indexed": true,
          "name": "to",
          "type": "address"
        },
        {
          "indexed": true,
          "name": "tokenId",
          "type": "uint256"
        }
      ],
      "name": "Transfer",
      "type": "event"
    },
    {
      "anonymous": false,
      "inputs": [
        {
          "indexed": true,
          "name": "owner",
          "type": "address"
        },
        {
          "indexed": true,
          "name": "approved",
          "type": "address"
        },
        {
          "indexed": true,
          "name": "tokenId",
          "type": "uint256"
        }
      ],
      "name": "Approval",
      "type": "event"
    },
    {
      "anonymous": false,
      "inputs": [
        {
          "indexed": true,
          "name": "owner",
          "type": "address"
        },
        {
          "indexed": true,
          "name": "operator",
          "type": "address"
        },
        {
          "indexed": false,
          "name": "approved",
          "type": "bool"
        }
      ],
      "name": "ApprovalForAll",
      "type": "event"
    },
    {
      "anonymous": false,
      "inputs": [],
      "name": "Paused",
      "type": "event"
    },
    {
      "anonymous": false,
      "inputs": [],
      "name": "Unpaused",
      "type": "event"
    },
    {
      "anonymous": false,
      "inputs": [
        {
          "indexed": true,
          "name": "to",
          "type": "address"
        }
      ],
      "name": "ownerityTransfered",
      "type": "event"
    },
    {
      "constant": false,
      "inputs": [
        {
          "name": "a",
          "type": "uint256[2]"
        },
        {
          "name": "a_p",
          "type": "uint256[2]"
        },
        {
          "name": "b",
          "type": "uint256[2][2]"
        },
        {
          "name": "b_p",
          "type": "uint256[2]"
        },
        {
          "name": "c",
          "type": "uint256[2]"
        },
        {
          "name": "c_p",
          "type": "uint256[2]"
        },
        {
          "name": "h",
          "type": "uint256[2]"
        },
        {
          "name": "k",
          "type": "uint256[2]"
        },
        {
          "name": "input",
          "type": "uint256[2]"
        },
        {
          "name": "account",
          "type": "address"
        },
        {
          "name": "tokenId",
          "type": "uint256"
        }
      ],
      "name": "submitSolution",
      "outputs": [],
      "payable": false,
      "stateMutability": "nonpayable",
      "type": "function"
    },
    {
      "constant": false,
      "inputs": [
        {
          "name": "to",
          "type": "address"
        },
        {
          "name": "tokenId",
          "type": "uint256"
        }
      ],
      "name": "mint",
      "outputs": [
        {
          "name": "",
          "type": "bool"
        }
      ],
      "payable": false,
      "stateMutability": "nonpayable",
      "type": "function"
    },
    {
      "constant": false,
      "inputs": [
        {
          "name": "tokenId",
          "type": "uint256"
        }
      ],
      "name": "mintBySolOwner",
      "outputs": [
        {
          "name": "",
          "type": "bool"
        }
      ],
      "payable": false,
      "stateMutability": "nonpayable",
      "type": "function"
    }
  ],
  "bytecode": "0x60806040523480156200001157600080fd5b5060405160208062002b63833981018060405260208110156200003357600080fd5b5051604080518082018252601981527f41716172205265616c204573746174652045786368616e67650000000000000060208281019190915282518084018452600481527f415141520000000000000000000000000000000000000000000000000000000081830152835160608101909452602880855292939092909162002b3b908301396000805460a060020a60ff0219600160a060020a031990911633171690556200010a7f01ffc9a70000000000000000000000000000000000000000000000000000000064010000000062000212810204565b6200013e7f80ac58cd0000000000000000000000000000000000000000000000000000000064010000000062000212810204565b620001727f780e9d630000000000000000000000000000000000000000000000000000000064010000000062000212810204565b82516200018790600f90602086019062000282565b5081516200019d90601090602085019062000282565b508051620001b390601190602084019062000282565b50620001e87f5b5e139f0000000000000000000000000000000000000000000000000000000064010000000062000212810204565b505060138054600160a060020a031916600160a060020a0393909316929092179091555062000327565b7fffffffff0000000000000000000000000000000000000000000000000000000080821614156200024257600080fd5b7fffffffff00000000000000000000000000000000000000000000000000000000166000908152600160208190526040909120805460ff19169091179055565b828054600181600116156101000203166002900490600052602060002090601f016020900481019282601f10620002c557805160ff1916838001178555620002f5565b82800160010185558215620002f5579182015b82811115620002f5578251825591602001919060010190620002d8565b506200030392915062000307565b5090565b6200032491905b808211156200030357600081556001016200030e565b90565b61280480620003376000396000f3fe608060405234801561001057600080fd5b5060043610610190576000357c01000000000000000000000000000000000000000000000000000000009004806342842e0e116100fb578063b0d64d1a116100b4578063ce606ee01161008e578063ce606ee014610911578063d547cfb714610919578063e985e9c514610921578063f2fde38b1461094f57610190565b8063b0d64d1a14610811578063b88d4fde1461082e578063c87b56dd146108f457610190565b806342842e0e146107455780634f6ccce71461077b5780636352211e1461079857806370a08231146107b557806395d89b41146107db578063a22cb465146107e357610190565b806318f511291161014d57806318f511291461030257806323b872dd146104d657806327dc297e1461050c5780632f745c59146105b957806338bbfa50146105e557806340c10f191461071957610190565b806301ffc9a71461019557806306fdde03146101e5578063081812fc14610262578063095ea7b31461029b57806316c38b3c146102c957806318160ddd146102e8575b600080fd5b6101d1600480360360208110156101ab57600080fd5b50357bffffffffffffffffffffffffffffffffffffffffffffffffffffffff1916610975565b604080519115158252519081900360200190f35b6101ed6109ad565b6040805160208082528351818301528351919283929083019185019080838360005b8381101561022757818101518382015260200161020f565b50505050905090810190601f1680156102545780820380516001836020036101000a031916815260200191505b509250505060405180910390f35b61027f6004803603602081101561027857600080fd5b5035610a44565b60408051600160a060020a039092168252519081900360200190f35b6102c7600480360360408110156102b157600080fd5b50600160a060020a038135169060200135610ac1565b005b6102c7600480360360208110156102df57600080fd5b50351515610c13565b6102f0610d67565b60408051918252519081900360200190f35b6102c760048036036102c081101561031957600080fd5b60408051808201825291830192918183019183906002908390839080828437600092019190915250506040805180820182529295949381810193925090600290839083908082843760009201829052506040805180820190915293969594608081019493509150600290835b828210156103c35760408051808201825290808402860190600290839083908082843760009201919091525050508152600190910190602001610385565b505060408051808201825293969594818101949350915060029083908390808284376000920191909152505060408051808201825292959493818101939250906002908390839080828437600092019190915250506040805180820182529295949381810193925090600290839083908082843760009201919091525050604080518082018252929594938181019392509060029083908390808284376000920191909152505060408051808201825292959493818101939250906002908390839080828437600092019190915250506040805180820182529295949381810193925090600290839083908082843760009201919091525091945050600160a060020a0382351692505060200135610d6d565b6102c7600480360360608110156104ec57600080fd5b50600160a060020a038135811691602081013590911690604001356113b7565b6102c76004803603604081101561052257600080fd5b8135919081019060408101602082013564010000000081111561054457600080fd5b82018360208201111561055657600080fd5b8035906020019184600183028401116401000000008311171561057857600080fd5b91908080601f0160208091040260200160405190810160405280939291908181526020018383808284376000920191909152509295506113dc945050505050565b6102f0600480360360408110156105cf57600080fd5b50600160a060020a0381351690602001356113fc565b6102c7600480360360608110156105fb57600080fd5b8135919081019060408101602082013564010000000081111561061d57600080fd5b82018360208201111561062f57600080fd5b8035906020019184600183028401116401000000008311171561065157600080fd5b91908080601f01602080910402602001604051908101604052809392919081815260200183838082843760009201919091525092959493602081019350359150506401000000008111156106a457600080fd5b8201836020820111156106b657600080fd5b803590602001918460018302840111640100000000831117156106d857600080fd5b91908080601f0160208091040260200160405190810160405280939291908181526020018383808284376000920191909152509295506113d7945050505050565b6101d16004803603604081101561072f57600080fd5b50600160a060020a038135169060200135611449565b6102c76004803603606081101561075b57600080fd5b50600160a060020a038135811691602081013590911690604001356115b5565b6102f06004803603602081101561079157600080fd5b50356115d1565b61027f600480360360208110156107ae57600080fd5b5035611606565b6102f0600480360360208110156107cb57600080fd5b5035600160a060020a0316611621565b6101ed61165f565b6102c7600480360360408110156107f957600080fd5b50600160a060020a03813516906020013515156116c0565b6101d16004803603602081101561082757600080fd5b5035611744565b6102c76004803603608081101561084457600080fd5b600160a060020a0382358116926020810135909116916040820135919081019060808101606082013564010000000081111561087f57600080fd5b82018360208201111561089157600080fd5b803590602001918460018302840111640100000000831117156108b357600080fd5b91908080601f0160208091040260200160405190810160405280939291908181526020018383808284376000920191909152509295506118b6945050505050565b6101ed6004803603602081101561090a57600080fd5b50356118de565b61027f611993565b6101ed6119a2565b6101d16004803603604081101561093757600080fd5b50600160a060020a0381358116916020013516611a03565b6102c76004803603602081101561096557600080fd5b5035600160a060020a0316611a31565b7bffffffffffffffffffffffffffffffffffffffffffffffffffffffff19811660009081526001602052604090205460ff165b919050565b600f8054604080516020601f6002600019610100600188161502019095169490940493840181900481028201810190925282815260609390929091830182828015610a395780601f10610a0e57610100808354040283529160200191610a39565b820191906000526020600020905b815481529060010190602001808311610a1c57829003601f168201915b505050505090505b90565b6000610a4f82611b50565b1515610aa5576040805160e560020a62461bcd02815260206004820152601060248201527f746f6b656e206e6f742065786973747300000000000000000000000000000000604482015290519081900360640190fd5b50600090815260036020526040902054600160a060020a031690565b600081815260026020526040902054600160a060020a0383811691161415610b1d5760405160e560020a62461bcd0281526004018080602001828103825260228152602001806127576022913960400191505060405180910390fd5b600081815260026020526040902054600160a060020a0316331480610b5f5750600081815260026020526040902054610b5f90600160a060020a031633611a03565b1515610b9f5760405160e560020a62461bcd0281526004018080602001828103825260368152602001806127216036913960400191505060405180910390fd5b6000818152600360209081526040808320805473ffffffffffffffffffffffffffffffffffffffff1916600160a060020a038781169182179092556002909352818420549151859492909116917f8c5be1e5ebec7d5bd14f71427d1e84f3dd0314c0f7b2291e5b200ac8c7c3b92591a45050565b600054600160a060020a03163314610c5f5760405160e560020a62461bcd02815260040180806020018281038252602c815260200180612779602c913960400191505060405180910390fd5b60005460ff740100000000000000000000000000000000000000009091041615158115151415610cc35760405160e560020a62461bcd02815260040180806020018281038252602c8152602001806126f5602c913960400191505060405180910390fd5b6000805474ff00000000000000000000000000000000000000001916740100000000000000000000000000000000000000008315158102919091179182905560ff91041615610d3a576040517f9e87fac88ff661f02d44f95383c817fece4bce600a3dab7a54406878b965e75290600090a1610d64565b6040517fa45f47fdea8a1efdd9029a5691c7f759c32b7c698632b563573e155625d1693390600090a15b50565b60085490565b801515610dc4576040805160e560020a62461bcd02815260206004820152601d60248201527f746f6b656e49642073686f756c64206265206d6f7265207468616e2030000000604482015290519081900360640190fd5b60008181526015602052604090205415610e28576040805160e560020a62461bcd02815260206004820152601560248201527f746f6b656e49643a2068617320736f6c7574696f6e0000000000000000000000604482015290519081900360640190fd5b601360009054906101000a9004600160a060020a0316600160a060020a031663fe01ff628c8c8c8c8c8c8c8c8c6040518a63ffffffff167c0100000000000000000000000000000000000000000000000000000000028152600401808a600260200280838360005b83811015610ea8578181015183820152602001610e90565b5050505090500189600260200280838360005b83811015610ed3578181015183820152602001610ebb565b505050509050018860026000925b81841015610f215760208402830151604080838360005b83811015610f10578181015183820152602001610ef8565b505050509050019260010192610ee1565b9250505087600260200280838360005b83811015610f49578181015183820152602001610f31565b5050505090500186600260200280838360005b83811015610f74578181015183820152602001610f5c565b5050505090500185600260200280838360005b83811015610f9f578181015183820152602001610f87565b5050505090500184600260200280838360005b83811015610fca578181015183820152602001610fb2565b5050505090500183600260200280838360005b83811015610ff5578181015183820152602001610fdd565b5050505090500182600260200280838360005b83811015611020578181015183820152602001611008565b505050509050019950505050505050505050602060405180830381600087803b15801561104c57600080fd5b505af1158015611060573d6000803e3d6000fd5b505050506040513d602081101561107657600080fd5b505115156110ce576040805160e560020a62461bcd02815260206004820152601560248201527f696e636f72726563742070726f6f6620696e7075740000000000000000000000604482015290519081900360640190fd5b60008b8b8b8b8b8b8b8b8b604051602001808a600260200280838360005b838110156111045781810151838201526020016110ec565b5050505090500189600260200280838360005b8381101561112f578181015183820152602001611117565b505050509050018860026000925b8184101561117d5760208402830151604080838360005b8381101561116c578181015183820152602001611154565b50505050905001926001019261113d565b9250505087600260200280838360005b838110156111a557818101518382015260200161118d565b5050505090500186600260200280838360005b838110156111d05781810151838201526020016111b8565b5050505090500185600260200280838360005b838110156111fb5781810151838201526020016111e3565b5050505090500184600260200280838360005b8381101561122657818101518382015260200161120e565b5050505090500183600260200280838360005b83811015611251578181015183820152602001611239565b5050505090500182600260200280838360005b8381101561127c578181015183820152602001611264565b50505050905001995050505050505050505060405160208183030381529060405280519060200120905060146000828152602001908152602001600020600001546000141515611316576040805160e560020a62461bcd02815260206004820152601560248201527f736f6c7574696f6e20616c726561647920757365640000000000000000000000604482015290519081900360640190fd5b60008281526015602090815260408083208490558383526014909152902060018101805473ffffffffffffffffffffffffffffffffffffffff1916600160a060020a0386161790558281556113729060029081019086906125da565b506040518290600160a060020a038516907f3a01cc868bdb36c1d9b8a262a8ad25064b23ac175b3f8e4453f1daf8ff6bac0d90600090a3505050505050505050505050565b6113c13382611b6d565b15156113cc57600080fd5b6113d7838383611bcc565b505050565b6040805160008152602081019091526113f890839083906113d7565b5050565b600061140783611621565b821061141257600080fd5b600160a060020a038316600090815260066020526040902080548390811061143657fe5b9060005260206000200154905092915050565b6000818152601560205260408120548015156114af576040805160e560020a62461bcd02815260206004820152601d60248201527f6e6f20736f6c7574696f6e20666f756e6420666f7220746f6b656e4964000000604482015290519081900360640190fd5b60008181526014602052604090206004015460ff1615611519576040805160e560020a62461bcd02815260206004820152601760248201527f746f6b656e49643a20616c6c7265616479206d696e6564000000000000000000604482015290519081900360640190fd5b60008381526015602090815260408083205483526014909152902060010154600160a060020a0390811690851681146115865760405160e560020a62461bcd0281526004018080602001828103825260348152602001806127a56034913960400191505060405180910390fd5b6000828152601460205260409020600401805460ff191660011790556115ac8585611beb565b95945050505050565b6113d783838360206040519081016040528060008152506118b6565b60006115db610d67565b82106115e657600080fd5b60088054839081106115f457fe5b90600052602060002001549050919050565b600090815260026020526040902054600160a060020a031690565b6000600160a060020a038216151561163857600080fd5b600160a060020a038216600090815260046020526040902061165990611c54565b92915050565b60108054604080516020601f6002600019610100600188161502019095169490940493840181900481028201810190925282815260609390929091830182828015610a395780601f10610a0e57610100808354040283529160200191610a39565b600160a060020a0382163314156116d657600080fd5b336000818152600560209081526040808320600160a060020a03871680855290835292819020805460ff1916861515908117909155815190815290519293927f17307eab39ab6107e8899845ad3d59bd9653f200f220920489ca2b5937696c31929181900390910190a35050565b6000818152601560205260408120548015156117aa576040805160e560020a62461bcd02815260206004820152601d60248201527f6e6f20736f6c7574696f6e20666f756e6420666f7220746f6b656e4964000000604482015290519081900360640190fd5b60008181526014602052604090206004015460ff1615611814576040805160e560020a62461bcd02815260206004820152601760248201527f746f6b656e49643a20616c6c7265616479206d696e6564000000000000000000604482015290519081900360640190fd5b60008381526015602090815260408083205483526014909152902060010154600160a060020a031633811461187d5760405160e560020a62461bcd0281526004018080602001828103825260358152602001806126c06035913960400191505060405180910390fd5b6000828152601460205260409020600401805460ff191660011790556118a38185611c58565b6118ac84611c75565b5060019392505050565b6118c18484846113b7565b6118cd84848484611d4c565b15156118d857600080fd5b50505050565b60606118e982611b50565b15156118f457600080fd5b60008281526012602090815260409182902080548351601f6002600019610100600186161502019093169290920491820184900484028101840190945280845290918301828280156119875780601f1061195c57610100808354040283529160200191611987565b820191906000526020600020905b81548152906001019060200180831161196a57829003601f168201915b50505050509050919050565b600054600160a060020a031690565b60118054604080516020601f6002600019610100600188161502019095169490940493840181900481028201810190925282815260609390929091830182828015610a395780601f10610a0e57610100808354040283529160200191610a39565b600160a060020a03918216600090815260056020908152604080832093909416825291909152205460ff1690565b600054600160a060020a03163314611a7d5760405160e560020a62461bcd02815260040180806020018281038252602c815260200180612779602c913960400191505060405180910390fd5b600160a060020a03811615801590611aa35750600054600160a060020a03828116911614155b1515611afb576040805160e560020a62461bcd028152602060048083019190915260248201527f544f444f00000000000000000000000000000000000000000000000000000000604482015290519081900360640190fd5b6000805473ffffffffffffffffffffffffffffffffffffffff1916600160a060020a038316908117825560405190917f93e5ecfbe736ee3cad9b988a55772a484ccfce6d26873a3418b0514d588cce7691a250565b600090815260026020526040902054600160a060020a0316151590565b600080611b7983611606565b905080600160a060020a031684600160a060020a03161480611bb4575083600160a060020a0316611ba984610a44565b600160a060020a0316145b80611bc45750611bc48185611a03565b949350505050565b611bd7838383611ec8565b611be18382611fb7565b6113d782826120ae565b60008054600160a060020a03163314611c385760405160e560020a62461bcd02815260040180806020018281038252602c815260200180612779602c913960400191505060405180910390fd5b611c428383611c58565b611c4b82611c75565b50600192915050565b5490565b611c6282826120ec565b611c6c82826120ae565b6113f88161219c565b611c7e81611b50565b1515611c8957600080fd5b60118054604080516020601f60026000196101006001881615020190951694909404938401819004810282018101909252828152611d299390929091830182828015611d165780601f10611ceb57610100808354040283529160200191611d16565b820191906000526020600020905b815481529060010190602001808311611cf957829003601f168201915b5050505050611d24836121e0565b6122c4565b600082815260126020908152604090912082516113f89391929190910190612618565b6000611d6084600160a060020a0316612300565b1515611d6e57506001611bc4565b6040517f150b7a020000000000000000000000000000000000000000000000000000000081523360048201818152600160a060020a03888116602485015260448401879052608060648501908152865160848601528651600095928a169463150b7a029490938c938b938b939260a4019060208501908083838e5b83811015611e01578181015183820152602001611de9565b50505050905090810190601f168015611e2e5780820380516001836020036101000a031916815260200191505b5095505050505050602060405180830381600087803b158015611e5057600080fd5b505af1158015611e64573d6000803e3d6000fd5b505050506040513d6020811015611e7a57600080fd5b50517bffffffffffffffffffffffffffffffffffffffffffffffffffffffff19167f150b7a020000000000000000000000000000000000000000000000000000000014915050949350505050565b82600160a060020a0316611edb82611606565b600160a060020a031614611eee57600080fd5b600160a060020a0382161515611f0357600080fd5b611f0c81612308565b600160a060020a0383166000908152600460205260409020611f2d90612350565b600160a060020a0382166000908152600460205260409020611f4e90612367565b600081815260026020526040808220805473ffffffffffffffffffffffffffffffffffffffff1916600160a060020a0386811691821790925591518493918716917fddf252ad1be2c89b69c2b068fc378daa952ba7f163c4a11628f55a4df523b3ef91a4505050565b600160a060020a038216600090815260066020526040812054611fe190600163ffffffff61237016565b60008381526007602052604090205490915080821461207e57600160a060020a038416600090815260066020526040812080548490811061201e57fe5b90600052602060002001549050806006600087600160a060020a0316600160a060020a031681526020019081526020016000208381548110151561205e57fe5b600091825260208083209091019290925591825260079052604090208190555b600160a060020a03841660009081526006602052604090208054906120a7906000198301612685565b5050505050565b600160a060020a0390911660009081526006602081815260408084208054868652600784529185208290559282526001810183559183529091200155565b600160a060020a038216151561210157600080fd5b61210a81611b50565b1561211457600080fd5b6000818152600260209081526040808320805473ffffffffffffffffffffffffffffffffffffffff1916600160a060020a03871690811790915583526004909152902061216090612367565b6040518190600160a060020a038416906000907fddf252ad1be2c89b69c2b068fc378daa952ba7f163c4a11628f55a4df523b3ef908290a45050565b600880546000838152600960205260408120829055600182018355919091527ff3f7a9fe364faab93b216da50a3214154f22a0a2b415b23a84c8169e8b636ee30155565b6060811515612223575060408051808201909152600181527f300000000000000000000000000000000000000000000000000000000000000060208201526109a8565b8160005b811561223b57600101600a82049150612227565b6060816040519080825280601f01601f191660200182016040528015612268576020820181803883390190505b50905060001982015b85156122bb57815160001982019160f860020a6030600a8a06010291849190811061229857fe5b906020010190600160f860020a031916908160001a905350600a86049550612271565b50949350505050565b6040805160208181018352600080835283518083018552818152845192830190945281526060926122f9928692869290612385565b9392505050565b6000903b1190565b600081815260036020526040902054600160a060020a031615610d64576000908152600360205260409020805473ffffffffffffffffffffffffffffffffffffffff19169055565b805461236390600163ffffffff61237016565b9055565b80546001019055565b60008282111561237f57600080fd5b50900390565b6060808690506060869050606086905060608690506060869050606081518351855187518951010101016040519080825280601f01601f1916602001820160405280156123d9576020820181803883390190505b509050806000805b885181101561243f5788818151811015156123f857fe5b90602001015160f860020a900460f860020a02838380600101945081518110151561241f57fe5b906020010190600160f860020a031916908160001a9053506001016123e1565b5060005b87518110156124a157878181518110151561245a57fe5b90602001015160f860020a900460f860020a02838380600101945081518110151561248157fe5b906020010190600160f860020a031916908160001a905350600101612443565b5060005b86518110156125035786818151811015156124bc57fe5b90602001015160f860020a900460f860020a0283838060010194508151811015156124e357fe5b906020010190600160f860020a031916908160001a9053506001016124a5565b5060005b855181101561256557858181518110151561251e57fe5b90602001015160f860020a900460f860020a02838380600101945081518110151561254557fe5b906020010190600160f860020a031916908160001a905350600101612507565b5060005b84518110156125c757848181518110151561258057fe5b90602001015160f860020a900460f860020a0283838060010194508151811015156125a757fe5b906020010190600160f860020a031916908160001a905350600101612569565b50909d9c50505050505050505050505050565b8260028101928215612608579160200282015b828111156126085782518255916020019190600101906125ed565b506126149291506126a5565b5090565b828054600181600116156101000203166002900490600052602060002090601f016020900481019282601f1061265957805160ff1916838001178555612608565b8280016001018555821561260857918201828111156126085782518255916020019190600101906125ed565b8154818355818111156113d7576000838152602090206113d79181019083015b610a4191905b8082111561261457600081556001016126ab56fe6f7267696e616c206f776e6572206f6620746f6b656e20736f6c7574696f6e206973206e6f742063616c6c65722061646472657373636f6e74726163742070617573656420737461746520697320616c6c7265646579202769735061757365642763616c6c6572206e6f74206f776e6572206f66207468697320746f6b656e206e697468657220617070726f76656420666f7220616c6c63616e206e6f7420617070726f76652073616d65206f776e657220616464726573736f6e6c79206f776e6572206f6620636f6e74726163742063616e2063616c6c2074686973206d6574686f64736f7267696e616c206f776e6572206f6620746f6b656e20736f6c7574696f6e206973206e6f74206164647265737320676976656ea165627a7a72305820409304bff85daa9a78afab014c6b1e5ee4a42dfe2d6c1d016e546163eae6d96f002968747470733a2f2f617161726e66742e6865726f6b756170702e636f6d2f6170692f746f6b656e2f",
  "source": "pragma solidity >=0.4.21 <0.6.0;\n\n// TODO define a contract call to the zokrates generated solidity contract <Verifier> or <renamedVerifier>\nimport \"./ERC721Mintable.sol\";\nimport \"./SquareVerifier.sol\";\n\n\n// TODO define another contract named SolnSquareVerifier that inherits from your ERC721Mintable class\ncontract SolnSquareVerifier is AqarERC721MintableToken {\n\n\n\n// TODO define a solutions struct that can hold an index & an address\n    struct Solution {\n        uint256 tokenId;\n        address owner;\n        uint256[2] input;\n        bool isMinted;\n    }\n\n    Verifier verifier;\n\n// TODO define an array of the above struct\n    mapping(bytes32 => Solution) solutions;\n\n// TODO define a mapping to store unique solutions submitted\n    mapping(uint256 => bytes32) private solutionsKeys;\n\n\n// TODO Create an event to emit when a solution is added\n    event SolutionAdded(address indexed to, uint256 indexed TokenId);\n\n    constructor(address verifierAddress) public {\n        verifier = Verifier(verifierAddress);\n    }\n\n// TODO Create a function to add the solutions to the array and emit the event\n    function submitSolution\n    (\n        uint[2] memory a,\n        uint[2] memory a_p,\n        uint[2][2] memory b,\n        uint[2] memory b_p,\n        uint[2] memory c,\n        uint[2] memory c_p,\n        uint[2] memory h,\n        uint[2] memory k,\n        uint[2] memory input,\n        address account,\n        uint256 tokenId\n    ) \n        public \n    {\n        require(tokenId != 0, \"tokenId should be more than 0\");\n        require(solutionsKeys[tokenId] == bytes32(0), \"tokenId: has solution\");\n        require(verifier.verifyTx(a, a_p, b, b_p, c, c_p, h, k, input), \"incorrect proof input\");\n\n        bytes32 solutionKey = keccak256(abi.encodePacked(a, a_p, b, b_p, c, c_p, h, k, input));\n        require(solutions[solutionKey].tokenId == 0, \"solution already used\");\n\n        solutionsKeys[tokenId] = solutionKey;\n        solutions[solutionKey].owner = account;\n        solutions[solutionKey].tokenId = tokenId;\n        solutions[solutionKey].input = input;\n\n        emit SolutionAdded(account, tokenId);\n    }\n\n\n// TODO Create a function to mint new NFT only after the solution has been verified\n//  - make sure the solution is unique (has not been used before)\n//  - make sure you handle metadata as well as tokenSuplly\n    function mint(address to, uint256 tokenId) public returns(bool) {\n        bytes32 solutionKey = solutionsKeys[tokenId];\n        require(solutionKey != bytes32(0), \"no solution found for tokenId\");\n        require(!solutions[solutionKey].isMinted, \"tokenId: allready mined\");\n\n        address orginalOwner = solutions[solutionsKeys[tokenId]].owner;\n        require(orginalOwner == to, \"orginal owner of token solution is not address given\");\n\n        solutions[solutionKey].isMinted = true;\n        return super.mint(to, tokenId);\n    }\n\n    function mintBySolOwner(uint256 tokenId) public returns(bool) {\n        bytes32 solutionKey = solutionsKeys[tokenId];\n        require(solutionKey != bytes32(0), \"no solution found for tokenId\");\n        require(!solutions[solutionKey].isMinted, \"tokenId: allready mined\");\n\n        address orginalOwner = solutions[solutionsKeys[tokenId]].owner;\n        require(orginalOwner == msg.sender, \"orginal owner of token solution is not caller address\");\n\n        solutions[solutionKey].isMinted = true;\n        super._mint(orginalOwner, tokenId);\n        super._setTokenURI(tokenId);\n        return true;\n    }\n}\n",
  "sourcePath": "/Users/khalid/Desktop/AqarNFToken/eth-project/contracts/SolnSquareVerifier.sol",
  "compiler": {
    "name": "solc",
    "version": "0.5.2+commit.1df8f40c.Emscripten.clang"
  },
  "schemaVersion": "3.0.6",
  "updatedAt": "2019-04-12T23:39:21.137Z",
  "devdoc": {
    "methods": {
      "isApprovedForAll(address,address)": {
        "details": "Tells whether an operator is approved by a given owner",
        "params": {
          "operator": "operator address which you want to query the approval of",
          "owner": "owner address which you want to query the approval of"
        },
        "return": "bool whether the given operator is approved by the given owner"
      },
      "setApprovalForAll(address,bool)": {
        "details": "Sets or unsets the approval of a given operator An operator is allowed to transfer all tokens of the sender on their behalf",
        "params": {
          "approved": "representing the status of the approval to be set",
          "to": "operator address to set the approval"
        }
      },
      "supportsInterface(bytes4)": {
        "details": "implement supportsInterface(bytes4) using a lookup table"
      },
      "tokenByIndex(uint256)": {
        "details": "Gets the token ID at a given index of all the tokens in this contract Reverts if the index is greater or equal to the total number of tokens",
        "params": {
          "index": "uint256 representing the index to be accessed of the tokens list"
        },
        "return": "uint256 token ID at the given index of the tokens list"
      },
      "tokenOfOwnerByIndex(address,uint256)": {
        "details": "Gets the token ID at a given index of the tokens list of the requested owner",
        "params": {
          "index": "uint256 representing the index to be accessed of the requested tokens list",
          "owner": "address owning the tokens list to be accessed"
        },
        "return": "uint256 token ID at the given index of the tokens list owned by the requested address"
      },
      "totalSupply()": {
        "details": "Gets the total amount of tokens stored by the contract",
        "return": "uint256 representing the total amount of tokens"
      }
    }
  },
  "userdoc": {
    "methods": {}
  }
}